{
    "_format": "hh-sol-artifact-1",
    "contractName": "Transactions",
    "sourceName": "contracts/Transactions.sol",
    "abi": [
        {
            "inputs": [],
            "stateMutability": "nonpayable",
            "type": "constructor"
        },
        {
            "anonymous": false,
            "inputs": [
                {
                    "indexed": true,
                    "internalType": "address",
                    "name": "sender",
                    "type": "address"
                },
                {
                    "indexed": true,
                    "internalType": "address",
                    "name": "receiver",
                    "type": "address"
                },
                {
                    "indexed": false,
                    "internalType": "uint256",
                    "name": "amount",
                    "type": "uint256"
                },
                {
                    "indexed": false,
                    "internalType": "string",
                    "name": "remark",
                    "type": "string"
                },
                {
                    "indexed": false,
                    "internalType": "uint256",
                    "name": "timestamp",
                    "type": "uint256"
                }
            ],
            "name": "Transfer",
            "type": "event"
        },
        {
            "inputs": [],
            "name": "getAllTransactions",
            "outputs": [
                {
                    "components": [
                        {
                            "internalType": "address",
                            "name": "sender",
                            "type": "address"
                        },
                        {
                            "internalType": "address",
                            "name": "receiver",
                            "type": "address"
                        },
                        {
                            "internalType": "uint256",
                            "name": "amount",
                            "type": "uint256"
                        },
                        {
                            "internalType": "string",
                            "name": "remark",
                            "type": "string"
                        },
                        {
                            "internalType": "uint256",
                            "name": "timestamp",
                            "type": "uint256"
                        }
                    ],
                    "internalType": "struct Transactions.TransferStruct[]",
                    "name": "",
                    "type": "tuple[]"
                }
            ],
            "stateMutability": "view",
            "type": "function"
        },
        {
            "inputs": [
                {
                    "internalType": "address",
                    "name": "addr",
                    "type": "address"
                }
            ],
            "name": "getBalance",
            "outputs": [
                {
                    "internalType": "uint256",
                    "name": "",
                    "type": "uint256"
                }
            ],
            "stateMutability": "view",
            "type": "function"
        },
        {
            "inputs": [],
            "name": "getOwner",
            "outputs": [
                {
                    "internalType": "address",
                    "name": "",
                    "type": "address"
                }
            ],
            "stateMutability": "view",
            "type": "function"
        },
        {
            "inputs": [],
            "name": "getTransactionsCount",
            "outputs": [
                {
                    "internalType": "uint256",
                    "name": "",
                    "type": "uint256"
                }
            ],
            "stateMutability": "view",
            "type": "function"
        },
        {
            "inputs": [
                {
                    "internalType": "address payable",
                    "name": "receiver",
                    "type": "address"
                },
                {
                    "internalType": "uint256",
                    "name": "amount",
                    "type": "uint256"
                },
                {
                    "internalType": "string",
                    "name": "remark",
                    "type": "string"
                }
            ],
            "name": "sendMoney",
            "outputs": [
                {
                    "internalType": "bool",
                    "name": "success",
                    "type": "bool"
                }
            ],
            "stateMutability": "nonpayable",
            "type": "function"
        }
    ],
    "bytecode": "0x608060405234801561001057600080fd5b50336000806101000a81548173ffffffffffffffffffffffffffffffffffffffff021916908373ffffffffffffffffffffffffffffffffffffffff1602179055503373ffffffffffffffffffffffffffffffffffffffff1631600260003273ffffffffffffffffffffffffffffffffffffffff1673ffffffffffffffffffffffffffffffffffffffff16815260200190815260200160002081905550610fe5806100bb6000396000f3fe608060405234801561001057600080fd5b50600436106100575760003560e01c8063125c5df71461005c57806327506f531461008c578063578cb8f9146100aa578063893d20e8146100c8578063f8b2cb4f146100e6575b600080fd5b61007660048036038101906100719190610857565b610116565b60405161008391906108e1565b60405180910390f35b61009461043c565b6040516100a19190610ae3565b60405180910390f35b6100b26105ed565b6040516100bf9190610b14565b60405180910390f35b6100d06105f7565b6040516100dd9190610b3e565b60405180910390f35b61010060048036038101906100fb9190610b85565b610620565b60405161010d9190610b14565b60405180910390f35b600082600260008060009054906101000a900473ffffffffffffffffffffffffffffffffffffffff1673ffffffffffffffffffffffffffffffffffffffff1673ffffffffffffffffffffffffffffffffffffffff1681526020019081526020016000205410156101895760009050610435565b82600260008060009054906101000a900473ffffffffffffffffffffffffffffffffffffffff1673ffffffffffffffffffffffffffffffffffffffff1673ffffffffffffffffffffffffffffffffffffffff16815260200190815260200160002060008282546101f99190610be1565b9250508190555082600260008673ffffffffffffffffffffffffffffffffffffffff1673ffffffffffffffffffffffffffffffffffffffff168152602001908152602001600020600082825461024f9190610c15565b9250508190555060018060008282546102689190610c15565b9250508190555060036040518060a0016040528060008054906101000a900473ffffffffffffffffffffffffffffffffffffffff1673ffffffffffffffffffffffffffffffffffffffff1681526020018673ffffffffffffffffffffffffffffffffffffffff16815260200185815260200184815260200142815250908060018154018082558091505060019003906000526020600020906005020160009091909190915060008201518160000160006101000a81548173ffffffffffffffffffffffffffffffffffffffff021916908373ffffffffffffffffffffffffffffffffffffffff16021790555060208201518160010160006101000a81548173ffffffffffffffffffffffffffffffffffffffff021916908373ffffffffffffffffffffffffffffffffffffffff1602179055506040820151816002015560608201518160030190816103ba9190610e55565b506080820151816004015550508373ffffffffffffffffffffffffffffffffffffffff163373ffffffffffffffffffffffffffffffffffffffff167fc4b32d7ff75a51e487f3cbb5d3202f2efecca1f4c2b987e0039c1d3220b48a8385854260405161042893929190610f71565b60405180910390a3600190505b9392505050565b60606003805480602002602001604051908101604052809291908181526020016000905b828210156105e457838290600052602060002090600502016040518060a00160405290816000820160009054906101000a900473ffffffffffffffffffffffffffffffffffffffff1673ffffffffffffffffffffffffffffffffffffffff1673ffffffffffffffffffffffffffffffffffffffff1681526020016001820160009054906101000a900473ffffffffffffffffffffffffffffffffffffffff1673ffffffffffffffffffffffffffffffffffffffff1673ffffffffffffffffffffffffffffffffffffffff1681526020016002820154815260200160038201805461054990610c78565b80601f016020809104026020016040519081016040528092919081815260200182805461057590610c78565b80156105c25780601f10610597576101008083540402835291602001916105c2565b820191906000526020600020905b8154815290600101906020018083116105a557829003601f168201915b5050505050815260200160048201548152505081526020019060010190610460565b50505050905090565b6000600154905090565b60008060009054906101000a900473ffffffffffffffffffffffffffffffffffffffff16905090565b6000600260008373ffffffffffffffffffffffffffffffffffffffff1673ffffffffffffffffffffffffffffffffffffffff168152602001908152602001600020549050919050565b6000604051905090565b600080fd5b600080fd5b600073ffffffffffffffffffffffffffffffffffffffff82169050919050565b60006106a88261067d565b9050919050565b6106b88161069d565b81146106c357600080fd5b50565b6000813590506106d5816106af565b92915050565b6000819050919050565b6106ee816106db565b81146106f957600080fd5b50565b60008135905061070b816106e5565b92915050565b600080fd5b600080fd5b6000601f19601f8301169050919050565b7f4e487b7100000000000000000000000000000000000000000000000000000000600052604160045260246000fd5b6107648261071b565b810181811067ffffffffffffffff821117156107835761078261072c565b5b80604052505050565b6000610796610669565b90506107a2828261075b565b919050565b600067ffffffffffffffff8211156107c2576107c161072c565b5b6107cb8261071b565b9050602081019050919050565b82818337600083830152505050565b60006107fa6107f5846107a7565b61078c565b90508281526020810184848401111561081657610815610716565b5b6108218482856107d8565b509392505050565b600082601f83011261083e5761083d610711565b5b813561084e8482602086016107e7565b91505092915050565b6000806000606084860312156108705761086f610673565b5b600061087e868287016106c6565b935050602061088f868287016106fc565b925050604084013567ffffffffffffffff8111156108b0576108af610678565b5b6108bc86828701610829565b9150509250925092565b60008115159050919050565b6108db816108c6565b82525050565b60006020820190506108f660008301846108d2565b92915050565b600081519050919050565b600082825260208201905092915050565b6000819050602082019050919050565b60006109338261067d565b9050919050565b61094381610928565b82525050565b610952816106db565b82525050565b600081519050919050565b600082825260208201905092915050565b60005b83811015610992578082015181840152602081019050610977565b60008484015250505050565b60006109a982610958565b6109b38185610963565b93506109c3818560208601610974565b6109cc8161071b565b840191505092915050565b600060a0830160008301516109ef600086018261093a565b506020830151610a02602086018261093a565b506040830151610a156040860182610949565b5060608301518482036060860152610a2d828261099e565b9150506080830151610a426080860182610949565b508091505092915050565b6000610a5983836109d7565b905092915050565b6000602082019050919050565b6000610a79826108fc565b610a838185610907565b935083602082028501610a9585610918565b8060005b85811015610ad15784840389528151610ab28582610a4d565b9450610abd83610a61565b925060208a01995050600181019050610a99565b50829750879550505050505092915050565b60006020820190508181036000830152610afd8184610a6e565b905092915050565b610b0e816106db565b82525050565b6000602082019050610b296000830184610b05565b92915050565b610b3881610928565b82525050565b6000602082019050610b536000830184610b2f565b92915050565b610b6281610928565b8114610b6d57600080fd5b50565b600081359050610b7f81610b59565b92915050565b600060208284031215610b9b57610b9a610673565b5b6000610ba984828501610b70565b91505092915050565b7f4e487b7100000000000000000000000000000000000000000000000000000000600052601160045260246000fd5b6000610bec826106db565b9150610bf7836106db565b9250828203905081811115610c0f57610c0e610bb2565b5b92915050565b6000610c20826106db565b9150610c2b836106db565b9250828201905080821115610c4357610c42610bb2565b5b92915050565b7f4e487b7100000000000000000000000000000000000000000000000000000000600052602260045260246000fd5b60006002820490506001821680610c9057607f821691505b602082108103610ca357610ca2610c49565b5b50919050565b60008190508160005260206000209050919050565b60006020601f8301049050919050565b600082821b905092915050565b600060088302610d0b7fffffffffffffffffffffffffffffffffffffffffffffffffffffffffffffffff82610cce565b610d158683610cce565b95508019841693508086168417925050509392505050565b6000819050919050565b6000610d52610d4d610d48846106db565b610d2d565b6106db565b9050919050565b6000819050919050565b610d6c83610d37565b610d80610d7882610d59565b848454610cdb565b825550505050565b600090565b610d95610d88565b610da0818484610d63565b505050565b5b81811015610dc457610db9600082610d8d565b600181019050610da6565b5050565b601f821115610e0957610dda81610ca9565b610de384610cbe565b81016020851015610df2578190505b610e06610dfe85610cbe565b830182610da5565b50505b505050565b600082821c905092915050565b6000610e2c60001984600802610e0e565b1980831691505092915050565b6000610e458383610e1b565b9150826002028217905092915050565b610e5e82610958565b67ffffffffffffffff811115610e7757610e7661072c565b5b610e818254610c78565b610e8c828285610dc8565b600060209050601f831160018114610ebf5760008415610ead578287015190505b610eb78582610e39565b865550610f1f565b601f198416610ecd86610ca9565b60005b82811015610ef557848901518255600182019150602085019450602081019050610ed0565b86831015610f125784890151610f0e601f891682610e1b565b8355505b6001600288020188555050505b505050505050565b600082825260208201905092915050565b6000610f4382610958565b610f4d8185610f27565b9350610f5d818560208601610974565b610f668161071b565b840191505092915050565b6000606082019050610f866000830186610b05565b8181036020830152610f988185610f38565b9050610fa76040830184610b05565b94935050505056fea2646970667358221220ca3c0618f4364185f5fd41e3a23875beb18f95f850a08341c20db17f0d79592864736f6c63430008110033",
    "linkReferences": {},
    "deployedLinkReferences": {}
}